:100000008A15302DFF3FFF3FFF00030E8301DB0009
:100010000408DA000A08DC008A0170088316C700A9
:100020008312A10A0319A20A0319A30A0319A40A35
:100030002408FF3A031D26282308FF3A031D26281B
:100040002208FF3A031D26282108FF3A031D2A280B
:100050000130A5000B1183164708F00083125C08DD
:100060008A005A0884005B0E8300FF0E7F0E090091
:100070004E3003138316B3006130B4004E30B50028
:10008000B6013030B700B8014930B9004E30BA007F
:100090004630BB00BC01BD01C00183126908831654
:1000A000C10083126A088316C20083126B0883168C
:1000B000C30083126C088316C4004408FF3A031D72
:1000C0006B284308FF3A031D6B284208FF3A031DC3
:1000D0006B284108FF3A031D782883126D08EE0053
:1000E000B330EF008A15A2248A110330F000080013
:1000F00001308316BE00C31F86288030C306BE0AA7
:1001000083126D0884002D308000ED0A0030F0006D
:1001100083164406031D962870084306031D96287F
:1001200070084206031D96284108003A031DA228C4
:1001300083126D08EE00B730EF008A15A2248A11F1
:10014000F0010800831644087F3A031DB1284308D4
:10015000803A031DB1284208003A031DB128410826
:10016000003A031DBF2883126D08EE00B930EF007E
:100170008A15A2248A1183163E08F0000800003078
:10018000F4000030F5000030F6007F30F700410841
:10019000F0004208F1004308F2004408F3008A1519
:1001A000F3228A11013003180030F000700803199F
:1001B000F82883164108F0004208F1004308F200D5
:1001C0004408F3000030F4000030F5002030F60061
:1001D0008230F7008A158C218A1170088316C100BD
:1001E0007108C2007208C3007308C400C003BF28AE
:1001F000031383160030F4000030F5002030F600C1
:100200008230F7004108F0004208F1004308F20094
:100210004408F3008A15F3228A110130031C0030D0
:10022000F00070080319332983164108F0004208D2
:10023000F1004308F2004408F300CD30F400CC3064
:10024000F5004C30F6007B30F7008A158C218A11BE
:1002500070088316C1007108C2007208C3007308D9
:10026000C400C00AF82803138316FF304105F500C7
:10027000FF304205F6007F304305F70000304405AB
:10028000F8007508F0007608F1007708F2007808A9
:10029000F300F00DF10DF20DF30D70100030C105FB
:1002A0000030C2050030C305FF30C4057008C1042A
:1002B0007108C2047208C3047308C4047F30440286
:1002C000F0007008BF000130C400700803196F29E6
:1002D000C10DC20DC30DC40D4110FF3F6629440876
:1002E000303FF00083126D08840070088000ED0A32
:1002F000803083164006F0008030013A7002031C03
:1003000089298030063AF0008030400670020318D8
:10031000922983126D0884002E308000ED0A01308E
:100320008316BD000630BF003F08003A0319DC29E0
:10033000C4014108F0004208F1004308F2004408FB
:10034000F300F00DF10DF20DF30D7010F00DF10D45
:10035000F20DF30D70107008C10771080318710FCA
:10036000C20772080318720FC30773080318730FCC
:10037000C407C10DC20DC30DC40D41104408303F68
:10038000F00083126D08840070088000ED0A831667
:100390003D08003A031DDA29C0034008003A031D56
:1003A000DA2983126D0884002E308000ED0A0130B6
:1003B0008316BD00BF039429FF3083126D078400AC
:1003C0000008F4007408303A031DE829ED03DC2925
:1003D000FF306D0784000008F40074082E3A031DF6
:1003E000F229ED0383164008003A0319352A8312D7
:1003F0006D08840065308000ED0A80308316400669
:10040000F0008030003A70020318102A83126D0841
:1004100084002D308000ED0A83164008003CC000A7
:100420004008BF004008093C0318242A0A30F400A1
:100430003F08F0008A151F258A113030F0076D083B
:10044000840070088000ED0A0A30F40083163F082B
:10045000F0008A151F258A117808F0003030F00767
:100460006D08840070088000ED0A031383126D0884
:1004700084008001F0010800503003138316A000AF
:100480006C30A1007A30A2002030A3007730A400A5
:100490006130A5006930A6007430A700A8016E3055
:1004A000A9004630AA00AB017530AC004630AD0063
:1004B000AE010130C6008A15B1228A118030831640
:1004C000C6008A15B1228A113108F000F1010C3002
:1004D000F4000030F5008A1544248A117008EC3FBE
:1004E000E9000B300318013F7107EA008A151D244B
:1004F0008A117008E9008A15EA248A118B30E90014
:100500000D30EA008A151D248A117008E9008A1549
:10051000EA248A11C0308316C6008A15B1228A11D6
:10052000003087180130F4007408003A031DE42BF2
:1005300001300705F4007408013A031DC52BA030F3
:10054000E9008A15EA248A11A101A201A301A401EC
:100550008830831681000B118B168B17831286153A
:100560000330EE008A15BE238A1170088312AF0093
:100570007108B00081012F08F0003008F1008A15E1
:10058000C0248A11AE30F4004730F5002130F60067
:100590008830F7008A15F3228A11013003180030E1
:1005A000F00070080319DF2A0330EE008A15BE231D
:1005B0008A1170088312AF007108B000BB2A0108CD
:1005C000C1008B138B120B112508031DB82B0130B2
:1005D0008316C6008A15B1228A1180308316C600A0
:1005E0008A15B1228A113108F000F1010C30F400B3
:1005F0000030F5008A1544248A117008EC3FE900A8
:100600000B300318013F7107EA008A151D248A1177
:100610007008E9008A15EA248A118B30E9000D3050
:10062000EA008A151D248A117008E9008A15EA2457
:100630008A11C0308316C6008A15B1228A1121089A
:10064000F0002208F1002308F2002408F3008A15C4
:10065000D6248A110030F4000030F5000030F60096
:100660008730F7008A158C218A1170088316AF0035
:100670007108B0007208B1007308B200831241081B
:10068000F0008A15FE248A1183162F08F400300822
:10069000F5003108F6003208F7008A1500208A11AB
:1006A0000030F4002430F5007430F6009230F7008A
:1006B0008A15A2208A117008C2007108C30072084E
:1006C000C4007308C5000030F4000030F5000030AD
:1006D000F6007F30F7008A15F3228A1101300318E3
:1006E0000030F00070080319A02B4208F000430806
:1006F000F1004408F2004508F3000030F400003037
:10070000F5007A30F6008830F7008A158C218A11BE
:100710007008E9007108EA007208EB007308EC0049
:100720003230ED003820323003138312E9008A158D
:10073000EA248A11A930E9008A15EA248A11B72B24
:100740004208E9004308EA004408EB004508EC00D1
:100750003230ED003820323003138312E9008A155D
:10076000EA248A11AC30E9008A15EA248A11C52BE3
:100770003630E9000D30EA008A151D248A11700810
:10078000E9008A15EA248A11A5010230FC00FF3035
:10079000FB00FF30FA00FC0BCE2BD52BFB0BD12B33
:1007A000D42BFA0BD12BCE2BCB2B0630FB00FF30FA
:1007B000FA00FB0BDC2BDF2BFA0BDC2BD92B0A30DE
:1007C000FA00FA0BE12B902A080020300313831261
:1007D000DE004B30DF00E001003087180130F4000C
:1007E0007408003A031DD62C01308316C6008A1502
:1007F000B1228A1180308316C6008A15B1228A116F
:100800003108F000F1010C30F4000030F5008A15D9
:1008100044248A117008EC3FE9000B300318013FB3
:100820007107EA008A151D248A117008E9008A15EB
:10083000EA248A118B30E9000D30EA008A151D2464
:100840008A117008E9008A15EA248A11C0308316DB
:10085000C6008A15B1228A110230EE008A15BE2325
:100860008A1170088312AF007108B0008A15C02485
:100870008A110030F4000030F5000030F6008930B5
:10088000F7008A15A2208A110030F4000030F5002C
:100890002030F6008130F7008A158C218A1170080B
:1008A000E5007108E6007208E7007308E8006508D3
:1008B000F0006608F1006708F2006808F3000030F5
:1008C000F4000030F5002030F6008230F7008A1581
:1008D0008C218A117008E1007108E2007208E300BF
:1008E0007308E4006508F0006608F1006708F2008C
:1008F0006808F3007008F4007108F5007208F6004B
:100900007308F7000030F0000030F1002030F200F2
:100910008130F3008A156D258A117008F400710882
:10092000F5007208F6007308F7006108F00062082D
:10093000F1006308F2006408F3008A15A2208A110E
:100940007008E9007108EA007208EB007308EC0017
:100950003230ED003820323003138312E9008A155B
:10096000EA248A115E30E9008A15EA248A110230ED
:10097000FC00FF30FB00FF30FA00FC0BC02CC72C42
:10098000FB0BC32CC62CFA0BC32CC02CBD2C063081
:10099000FB00FF30FA00FB0BCE2CD12CFA0BCE2C37
:1009A000CB2C0A30FA00FA0BD32CEC2B08002030A9
:1009B00003138312DE005630DF00E0012C30E1002B
:1009C0005230E200E3010130E4000130E500003084
:1009D00087180130F4007408003A031DC12D01305E
:1009E0000705F4007408013A031DF92C6408013C62
:1009F000E400022D86140130E5000A2D8610043033
:100A0000E5000A2D6408003A0319FA2C6408013A3B
:100A10000319FE2C01308316C6008A15B1228A11F3
:100A200080308316C6008A15B1228A113108F00081
:100A3000F1010C30F4000030F5008A1544248A11CD
:100A40007008EC3FE9000B300318013F7107EA0022
:100A50008A151D248A117008E9008A15EA248A1172
:100A60008B30E9000D30EA008A151D248A117008C8
:100A7000E9008A15EA248A11C0308316C6008A1557
:100A8000B1228A11E9010130EA008A1587248A110E
:100A900003303002031D4E2DF9302F020318962D1E
:100AA0006508F000F1012F08F4003008F5008A1500
:100AB00044248A118A15C0248A110030F4000030C1
:100AC000F5002030F6008130F7008A158C218A115C
:100AD0000030F4000030F5000030F6008930F700F7
:100AE0008A15A2208A117008E9007108EA007208CC
:100AF000EB007308EC003230ED0038203230031385
:100B00008312E9008A15EA248A115E30E9008A1509
:100B1000EA248A116130E9008A15EA248A1130300A
:100B20006407EE008A1555258A11A22D3630E9009A
:100B30000D30EA008A151D248A117008E9008A1513
:100B4000EA248A110230FC00FF30FB00FF30FA007B
:100B5000FC0BAB2DB22DFB0BAE2DB12DFA0BAE2D38
:100B6000AB2DA82D0630FB00FF30FA00FB0BB92D92
:100B7000BC2DFA0BB92DB62D0A30FA00FA0BBE2D9A
:100B8000E72C0800203003138312DE004130DF0021
:100B9000E001003087180130F4007408003A031DAA
:100BA0008E2E01308316C6008A15B1228A1180303C
:100BB0008316C6008A15B1228A113108F000F101AE
:100BC0000C30F4000030F5008A1544248A117008B6
:100BD000EC3FE9000B300318013F7107EA008A156A
:100BE0001D248A117008E9008A15EA248A118B30C5
:100BF000E9000D30EA008A151D248A117008E90009
:100C00008A15EA248A11C0308316C6008A15B122DB
:100C10008A110530E9000430EA008A1587248A1118
:100C200003303002031D162EFF302F020318632EEF
:100C30002F08F0003008F1008A15C0248A11003016
:100C4000F4000030F5000030F6008130F7008A151E
:100C50008C218A110030F4000030F5002030F600BD
:100C60008130F7008A158C218A110030F4000030A1
:100C7000F5000030F6008930F7008A15A2208A11AD
:100C80000030F4000030F5002030F6008130F7002D
:100C90008A15A2208A117008E9007108EA0072081A
:100CA000EB007308EC003230ED00382032300313D3
:100CB0008312E9008A15EA248A115E30E9008A1558
:100CC000EA248A116F2E3630E9000D30EA008A15C9
:100CD0001D248A117008E9008A15EA248A1102305D
:100CE000FC00FF30FB00FF30FA00FC0B782E7F2E5B
:100CF000FB0B7B2E7E2EFA0B7B2E782E752E06306C
:100D0000FB00FF30FA00FB0B862E892EFA0B862E95
:100D1000832E0A30FA00FA0B8B2EC92D080003131C
:100D200083123108F000F1010C30F4000030F500BE
:100D30008A1544248A117008EC3FE9000B3003182F
:100D4000013F7107EA008A151D248A117008E90025
:100D50008A15EA248A1101300705F2007208013A67
:100D6000031DB62E8A1574238A11F42E00308718BD
:100D70000130F2007208013A031DE92E8A15EF21B5
:100D80008A11013003138316C6008A15B1228A1115
:100D900080308316C6008A15B1228A113108F0000E
:100DA000F1010C30F4000030F5008A1544248A115A
:100DB0007008EC3FE9000B300318013F7107EA00AF
:100DC0008A151D248A117008E9008A15EA248A11FF
:100DD000F42E003007190130F2007208013A031DA9
:100DE000F42E8A1599238A11C330FB00FF30FA00D4
:100DF000FB0BFB2EFE2EFA0BFB2EF82E4B30FA00CF
:100E0000FA0B002F0000AB2E080003138312FB1413
:100E1000FB1F112FFF30F300F200F100F000FA0D7C
:100E2000F20CFF300800FF3FFF3FFF3FFF3FFF3F57
:100E3000FF3FFF3FFF3FFF3FFF3FFF3FFF3FFF3FC2
:100E4000FF3FFF3FFF3FFF3FFF3FFF3FFF3FFF3FB2
:100E5000FF3FFF3FFF3FFF3FFF3FFF3FFF3FFF3FA2
:100E6000FF3FFF3FFF3FFF3FFF3FFF3FFF3FFF3F92
:100E7000FF3FFF3FFF3FFF3FFF3FFF3FFF3FFF3F82
:100E8000FF3FFF3FFF3FFF3FFF3FFF3FFF3FFF3F72
:100E9000FF3FFF3FFF3FFF3FFF3FFF3FFF3FFF3F62
:100EA000FF3FFF3FFF3FFF3FFF3FFF3FFF3FFF3F52
:100EB000FF3FFF3FFF3FFF3FFF3FFF3FFF3FFF3F42
:100EC000FF3FFF3FFF3FFF3FFF3FFF3FFF3FFF3F32
:100ED000FF3FFF3FFF3FFF3FFF3FFF3FFF3FFF3F22
:100EE000FF3FFF3FFF3FFF3FFF3FFF3FFF3FFF3F12
:100EF000FF3FFF3FFF3FFF3FFF3FFF3FFF3FFF3F02
:100F0000FF3FFF3FFF3FFF3FFF3FFF3FFF3FFF3FF1
:100F1000FF3FFF3FFF3FFF3FFF3FFF3FFF3FFF3FE1
:100F2000FF3FFF3FFF3FFF3FFF3FFF3FFF3FFF3FD1
:100F3000FF3FFF3FFF3FFF3FFF3FFF3FFF3FFF3FC1
:100F4000FF3FFF3FFF3FFF3FFF3FFF3FFF3FFF3FB1
:100F5000FF3FFF3FFF3FFF3FFF3FFF3FFF3FFF3FA1
:100F6000FF3FFF3FFF3FFF3FFF3FFF3FFF3FFF3F91
:100F7000FF3FFF3FFF3FFF3FFF3FFF3FFF3FFF3F81
:100F8000FF3FFF3FFF3FFF3FFF3FFF3FFF3FFF3F71
:100F9000FF3FFF3FFF3FFF3FFF3FFF3FFF3FFF3F61
:100FA000FF3FFF3FFF3FFF3FFF3FFF3FFF3FFF3F51
:100FB000FF3FFF3FFF3FFF3FFF3FFF3FFF3FFF3F41
:100FC000FF3FFF3FFF3FFF3FFF3FFF3FFF3FFF3F31
:100FD000FF3FFF3FFF3FFF3FFF3FFF3FFF3FFF3F21
:100FE000FF3FFF3FFF3FFF3FFF3FFF3FFF3FFF3F11
:100FF000FF3FFF3FFF3FFF3FFF3FFF3FFF3FFF3F01
:101000000313831272087606A000F801F901730831
:101010007702031C23287708FD007308F7007D087A
:10102000F3007608FD007208F6007D08F2007508EE
:10103000FD007108F5007D08F1007408FD007008DE
:10104000F4007D08F000770803199E287208FA0062
:10105000F217F61777087302F700031956280830BD
:101060007702031C4C28F7007408F9007508F40097
:101070007608F500F60108307702031C4C28F700CB
:101080007408F9007508F400F50108307702031CB4
:101090004C287A08F2009E28770803195628031076
:1010A000F60CF50CF40CF90CF70B4F28A01F632875
:1010B000F909F409F509F609F90A0319F40A0319FB
:1010C000F50A0319F60A7908F80774080318740F6B
:1010D000F00775080318750FF10776080318760FE7
:1010E000F207A01B7C28031C8C28F20CF10CF00CDE
:1010F000F80CF30F8C28982803189028F809F009A9
:10110000F109F209F80A0319F00A0319F10A03199F
:10111000F20A8030FA0694280130FC005322A028FD
:101120000230FC005322A0280430FC004323A028F6
:101130000830FC008A1105278A15A0280030FC0021
:10114000000008000313831277080319312973087C
:1011500003193429720876068039FA00F217F61757
:10116000A0017208F8007108FC007008FD00740806
:10117000FD027508031C750FFC027608031C760F30
:10118000F802F801FC01FD01031CCD280310F20C4C
:10119000F10CF00CF80C0130A0007708F302031CEE
:1011A000D7287E302007F30703183729DC287E3044
:1011B0002007F307031C3C291830FA07FD0DFC0D2E
:1011C000F80DF00DF10DF20DA00D7408F002750888
:1011D000031C750FF1027608031C760FF202760DE0
:1011E000A004201CF5287D1400297408F007750858
:1011F0000318750FF10776080318760AF2077D10B9
:10120000FA031F307A05031DDE287B1B7D1C27296E
:101210000310F00DF10DF20DA00D7408F002750829
:10122000031C750FF1027608031C760FF202760D8F
:1012300020040139FD070318FC0A0319F80A031DED
:101240002729F80CFC0CFD0CF30A03193729FA1FA7
:10125000F8137808F2007C08F1007D08F0000030F7
:101260003E290130A6253E29023073253E2904304F
:101270008A1105278A153E2908305F2500000800DD
:101280000E250E250E255D08A6005D088400841736
:1012900080110011001080130013801200128413BB
:1012A00080110011001080130013801200128016AC
:1012B0000016801580110E25801580110E258015D1
:1012C00080110E2580160012801580110E258001D8
:1012D00080168015801180018017801580110E25E1
:1012E00080010016801580118001801580110E2567
:1012F0008001801580110016801580110E25800157
:101300008015801100168016001780178015801137
:101310000E250130A700080003138312FB01730898
:10132000031D77080319E32972087606FA00770887
:10133000F3077E30031CA029F3020318E629A32932
:10134000F302031CEB297208F8007108FC00700816
:10135000FD00F817F6170310F201F101F001183043
:10136000A0007D1CBD297408F00775080318750FCF
:10137000F10776080318760FF207F20CF10CF00C67
:10138000F80CFC0CFD0C0310A00BB129F21BCD29AD
:10139000F80DF00DF10DF20DF3037B1B701CDF292E
:1013A000F81FDF29F00A0319F10A0319F20A031DD5
:1013B000DF29F20CF10CF00CF30A0319E629FA1FED
:1013C000F2130030ED2901307325ED2902308A1126
:1013D00005278A15ED2904305F25000008003F2A03
:1013E000C33003138312FB00FF30FA00FB0BF92913
:1013F000FC29FA0BF929F6294B30FA00FA0BFE29E1
:1014000000008A11D7248A15522AC330FB00FF300E
:10141000FA00FB0B0C2A0F2AFA0B0C2A092A4B3074
:10142000FA00FA0B112A00008A11C2258A15522AE5
:10143000C330FB00FF30FA00FB0B1F2A222AFA0BF5
:101440001F2A1C2A4B30FA00FA0B242A00008A11AA
:101450003C228A15522AC330FB00FF30FA00FB0BF6
:10146000322A352AFA0B322A2F2A4B30FA00FA0B8D
:10147000372A00008A11E5238A15522A080003132F
:1014800083123108003A0319F0293108013A03198F
:10149000052A3108023A0319182A3108033A0319B8
:1014A0002B2A3E2A0800031383127C188B2AFC186F
:1014B0005C2A7C19AA2A552AA0017208031D7C2ADD
:1014C0007108F2007008F1007808F000F801A0152A
:1014D0007208031D7C2A7108F2007008F100F00107
:1014E000A01120167208031D7C2A7108F200F10178
:1014F000A015720803199E2A2008F302031D031C7D
:10150000A22A0310F21B8B2AF80DF00DF10DF20D3B
:10151000F30B822AA22A7B1B701CA62AF81FA62A7C
:10152000F00A0319F10A0319F20A031DA62AF20CA4
:10153000F10CF00CF30A0319AA2AA62A0130FC00C8
:101540007325AF2A0230FC005F25AF2A0430FC006F
:10155000A025AF2A0830FC008A1105278A15000053
:101560000800031383122608840083164608031913
:10157000B92A801100118013001380120012C61BBB
:101580008017461B0017C61A8016461A00168312CB
:1015900027080319CD2A0011CE2A00158015AB2586
:1015A000831646080319D42A8011001180130013F2
:1015B00080120012C619801746190017C618801627
:1015C00046180016831227080319E82A0011E92A91
:1015D00000158015AB25801127080319F12A0E2567
:1015E000F22A7C25080003138312FA017308031DF5
:1015F0007A147708031DFA147A0803193F2B033A6B
:1016000003190A2B7A18072BF61F3D2B3B2BF21FD1
:101610003B2B3D2B72088039FA00F2137608803993
:10162000F6137A060319182B7A0803193B2B3D2B66
:101630007708730203191F2B031C332B372B7608F3
:1016400072020319262B031C332B372B75087102EA
:1016500003192D2B031C332B372B7408700203192D
:101660003F2B0318372BFA0803193D2B3B2BFA08A5
:1016700003193B2B3D2B031408000310080003142F
:1016800003150800080003138312A0017208031D4C
:101690005A2B7108F2007008F100F001A0157208D1
:1016A000031D5A2B7108F200F101A01120167208D7
:1016B0000319682B2008F302031D031C6C2B031075
:1016C000F21B702BF00DF10DF20DF30B602B6C2B58
:1016D0000130FC007325732B0230FC005F25732B57
:1016E0000430FC00A0250800031383123108003ADF
:1016F000031D7B2B0800B10301308316C600B12205
:1017000080308316C600B1223108F000F1010C30A0
:10171000F4000030F50044247008EC3FE9000B3081
:101720000318013F7107EA001D247008E900EA244C
:101730000800031383123108033A031DA02B08008D
:10174000B10A01308316C600B12280308316C6006C
:10175000B1223108F000F1010C30F4000030F50046
:1017600044247008EC3FE9000B300318013F710777
:10177000EA001D247008E900EA240800031383121C
:101780009F01C0309F0483161F179F1783126E0896
:10179000F000F00D7010F00D7010F00D701070086A
:1017A0009F041F1499251F151F1DD82B0000D42B33
:1017B0001F100830F2001E08F000F1017208031932
:1017C000E62BF00DF10D7010FF3FDF2B83161E0886
:1017D000F0040030F104080056346F346C34743473
:1017E00020344D346534743465347234203400341C
:1017F00041346D34703420344D3465347434653480
:101800007234203400340034433461347034203472
:101810004D3465347434653472342034003400340B
:1018200052346534733420344D3465347434653443
:101830007234203400340034080003138312EB01A7
:101840006B08463FF2006B086907F0006A0803184E
:10185000013FF1007008AA007108A9000A08A80059
:101860009225F00028088A00720884007008800021
:10187000720884000008F00070080319412CEB0A7C
:10188000202C4630F000080003138312FB01FA01FC
:10189000F9018030F800F10CF00C031C582C74088E
:1018A000F90775080318750FFA070318FB0A0310E8
:1018B000F01F602C7408FA0775080318750FFB07F2
:1018C000FB0CFA0CF90CF80C031C4B2C7B08F300F6
:1018D0007A08F2007908F1007808F0000800031394
:1018E0008316880108308312DD0040210130831601
:1018F000C600B1220C308316C600B12284258601B1
:10190000831286018614FF308316870008000313B4
:1019100083126908EE00BE2370088312AB007108C1
:10192000AC006A08EE00BE2370088312AD00710897
:10193000AE0070082B02AF007108031C013F2C029F
:10194000B0000800031383126E088316C50003134A
:1019500083164508F100C50A83126F088400EF0A58
:101960000008F0007108840070088000710884008D
:101970000008F0007008031DA72C6E08F000080096
:10198000031383127008F8007108F000F101F201EE
:10199000F301FB01FC019630F300FA017008F1003D
:1019A0007808F000F801F2014323080003138312C2
:1019B0007008F8007108F0007208F1007308F20076
:1019C000F301FB01FC019E30F300FA010230FC0040
:1019D0005322080003138312EA016A08690784008E
:1019E0000008F00070080319FD2C6A0869078400DC
:1019F0000008EE005525EA0AED2C080003138312B7
:101A00007008F800FB01FC019E30F300FA01F201BE
:101A1000F101F0010230FC005322080008300313EA
:101A20008312FB00FF30FA00FB0B172D1A2DFA0B67
:101A3000172D142D1E30FA00FA0B1C2D080003136D
:101A40008312F8010830FC00700DF80D7408F802DC
:101A500003182C2DF8070310F00DFC0B242D0800A3
:101A600046256F248A118F268A15352D4F347534FB
:101A7000743420346F3466342034723461346E34FC
:101A80006734653400340034003408000030031338
:101A90008312A1000030A2000030A3000030A40097
:101AA0000030A5000030B100080003138312A70125
:101AB0006E088316C600B1220130A7000800031388
:101AC00083127B15FB1F6B2D0130F300F201F10136
:101AD000F001FA0DF20CFF3008000313831280307E
:101AE000F6060020080003138312F201F101F00151
:101AF000F801F30100300800103003138312FA00DC
:101B0000FA0B802D000008008030031383169F001D
:101B1000FF30850008006D346F34643465343A3426
:101B2000003408000313831229088A002A0882005F
:101B30000800073003138312FA00FA0B9D2D0800EA
:101B400003138312FA1FF2130030080003138312E9
:101B5000FB15FF30080000000800FF3FFF3FFF3F7C
:02400E007A3FF7
:00000001FF
